{
  "contractName": "tToken",
  "abi": [
    {
      "inputs": [
        {
          "internalType": "uint256",
          "name": "initialSupply",
          "type": "uint256"
        }
      ],
      "stateMutability": "nonpayable",
      "type": "constructor"
    },
    {
      "anonymous": false,
      "inputs": [
        {
          "indexed": true,
          "internalType": "address",
          "name": "owner",
          "type": "address"
        },
        {
          "indexed": true,
          "internalType": "address",
          "name": "spender",
          "type": "address"
        },
        {
          "indexed": false,
          "internalType": "uint256",
          "name": "value",
          "type": "uint256"
        }
      ],
      "name": "Approval",
      "type": "event"
    },
    {
      "anonymous": false,
      "inputs": [
        {
          "indexed": true,
          "internalType": "address",
          "name": "previousOwner",
          "type": "address"
        },
        {
          "indexed": true,
          "internalType": "address",
          "name": "newOwner",
          "type": "address"
        }
      ],
      "name": "OwnershipTransferred",
      "type": "event"
    },
    {
      "anonymous": false,
      "inputs": [
        {
          "indexed": true,
          "internalType": "address",
          "name": "from",
          "type": "address"
        },
        {
          "indexed": true,
          "internalType": "address",
          "name": "to",
          "type": "address"
        },
        {
          "indexed": false,
          "internalType": "uint256",
          "name": "value",
          "type": "uint256"
        }
      ],
      "name": "Transfer",
      "type": "event"
    },
    {
      "inputs": [
        {
          "internalType": "address",
          "name": "owner",
          "type": "address"
        },
        {
          "internalType": "address",
          "name": "spender",
          "type": "address"
        }
      ],
      "name": "allowance",
      "outputs": [
        {
          "internalType": "uint256",
          "name": "",
          "type": "uint256"
        }
      ],
      "stateMutability": "view",
      "type": "function",
      "constant": true
    },
    {
      "inputs": [
        {
          "internalType": "address",
          "name": "spender",
          "type": "address"
        },
        {
          "internalType": "uint256",
          "name": "amount",
          "type": "uint256"
        }
      ],
      "name": "approve",
      "outputs": [
        {
          "internalType": "bool",
          "name": "",
          "type": "bool"
        }
      ],
      "stateMutability": "nonpayable",
      "type": "function"
    },
    {
      "inputs": [
        {
          "internalType": "address",
          "name": "account",
          "type": "address"
        }
      ],
      "name": "balanceOf",
      "outputs": [
        {
          "internalType": "uint256",
          "name": "",
          "type": "uint256"
        }
      ],
      "stateMutability": "view",
      "type": "function",
      "constant": true
    },
    {
      "inputs": [],
      "name": "decimals",
      "outputs": [
        {
          "internalType": "uint8",
          "name": "",
          "type": "uint8"
        }
      ],
      "stateMutability": "view",
      "type": "function",
      "constant": true
    },
    {
      "inputs": [
        {
          "internalType": "address",
          "name": "spender",
          "type": "address"
        },
        {
          "internalType": "uint256",
          "name": "subtractedValue",
          "type": "uint256"
        }
      ],
      "name": "decreaseAllowance",
      "outputs": [
        {
          "internalType": "bool",
          "name": "",
          "type": "bool"
        }
      ],
      "stateMutability": "nonpayable",
      "type": "function"
    },
    {
      "inputs": [],
      "name": "fee1Month",
      "outputs": [
        {
          "internalType": "uint16",
          "name": "",
          "type": "uint16"
        }
      ],
      "stateMutability": "view",
      "type": "function",
      "constant": true
    },
    {
      "inputs": [],
      "name": "fee3Months",
      "outputs": [
        {
          "internalType": "uint16",
          "name": "",
          "type": "uint16"
        }
      ],
      "stateMutability": "view",
      "type": "function",
      "constant": true
    },
    {
      "inputs": [],
      "name": "fee6Months",
      "outputs": [
        {
          "internalType": "uint16",
          "name": "",
          "type": "uint16"
        }
      ],
      "stateMutability": "view",
      "type": "function",
      "constant": true
    },
    {
      "inputs": [],
      "name": "feeRate",
      "outputs": [
        {
          "internalType": "uint8",
          "name": "",
          "type": "uint8"
        }
      ],
      "stateMutability": "view",
      "type": "function",
      "constant": true
    },
    {
      "inputs": [
        {
          "internalType": "address",
          "name": "spender",
          "type": "address"
        },
        {
          "internalType": "uint256",
          "name": "addedValue",
          "type": "uint256"
        }
      ],
      "name": "increaseAllowance",
      "outputs": [
        {
          "internalType": "bool",
          "name": "",
          "type": "bool"
        }
      ],
      "stateMutability": "nonpayable",
      "type": "function"
    },
    {
      "inputs": [
        {
          "internalType": "address",
          "name": "",
          "type": "address"
        },
        {
          "internalType": "uint256",
          "name": "",
          "type": "uint256"
        }
      ],
      "name": "lockedBalances",
      "outputs": [
        {
          "internalType": "uint256",
          "name": "amount",
          "type": "uint256"
        },
        {
          "internalType": "uint8",
          "name": "months",
          "type": "uint8"
        },
        {
          "internalType": "uint256",
          "name": "releaseTime",
          "type": "uint256"
        }
      ],
      "stateMutability": "view",
      "type": "function",
      "constant": true
    },
    {
      "inputs": [],
      "name": "mintAmount",
      "outputs": [
        {
          "internalType": "uint8",
          "name": "",
          "type": "uint8"
        }
      ],
      "stateMutability": "view",
      "type": "function",
      "constant": true
    },
    {
      "inputs": [],
      "name": "mintForAccount",
      "outputs": [
        {
          "internalType": "uint8",
          "name": "",
          "type": "uint8"
        }
      ],
      "stateMutability": "view",
      "type": "function",
      "constant": true
    },
    {
      "inputs": [],
      "name": "mintLeft",
      "outputs": [
        {
          "internalType": "uint16",
          "name": "",
          "type": "uint16"
        }
      ],
      "stateMutability": "view",
      "type": "function",
      "constant": true
    },
    {
      "inputs": [],
      "name": "name",
      "outputs": [
        {
          "internalType": "string",
          "name": "",
          "type": "string"
        }
      ],
      "stateMutability": "view",
      "type": "function",
      "constant": true
    },
    {
      "inputs": [],
      "name": "owner",
      "outputs": [
        {
          "internalType": "address",
          "name": "",
          "type": "address"
        }
      ],
      "stateMutability": "view",
      "type": "function",
      "constant": true
    },
    {
      "inputs": [],
      "name": "renounceOwnership",
      "outputs": [],
      "stateMutability": "nonpayable",
      "type": "function"
    },
    {
      "inputs": [],
      "name": "symbol",
      "outputs": [
        {
          "internalType": "string",
          "name": "",
          "type": "string"
        }
      ],
      "stateMutability": "view",
      "type": "function",
      "constant": true
    },
    {
      "inputs": [],
      "name": "totalSupply",
      "outputs": [
        {
          "internalType": "uint256",
          "name": "",
          "type": "uint256"
        }
      ],
      "stateMutability": "view",
      "type": "function",
      "constant": true
    },
    {
      "inputs": [
        {
          "internalType": "address",
          "name": "from",
          "type": "address"
        },
        {
          "internalType": "address",
          "name": "to",
          "type": "address"
        },
        {
          "internalType": "uint256",
          "name": "amount",
          "type": "uint256"
        }
      ],
      "name": "transferFrom",
      "outputs": [
        {
          "internalType": "bool",
          "name": "",
          "type": "bool"
        }
      ],
      "stateMutability": "nonpayable",
      "type": "function"
    },
    {
      "inputs": [
        {
          "internalType": "address",
          "name": "newOwner",
          "type": "address"
        }
      ],
      "name": "transferOwnership",
      "outputs": [],
      "stateMutability": "nonpayable",
      "type": "function"
    },
    {
      "inputs": [],
      "name": "mintToken",
      "outputs": [],
      "stateMutability": "nonpayable",
      "type": "function"
    },
    {
      "inputs": [
        {
          "internalType": "address",
          "name": "_account",
          "type": "address"
        }
      ],
      "name": "mintLeftAddress",
      "outputs": [
        {
          "internalType": "uint256",
          "name": "",
          "type": "uint256"
        }
      ],
      "stateMutability": "view",
      "type": "function",
      "constant": true
    },
    {
      "inputs": [
        {
          "internalType": "uint8",
          "name": "_rate",
          "type": "uint8"
        }
      ],
      "name": "setFeeRate",
      "outputs": [],
      "stateMutability": "nonpayable",
      "type": "function"
    },
    {
      "inputs": [
        {
          "internalType": "uint16",
          "name": "_fee",
          "type": "uint16"
        }
      ],
      "name": "setFee1Month",
      "outputs": [],
      "stateMutability": "nonpayable",
      "type": "function"
    },
    {
      "inputs": [
        {
          "internalType": "uint16",
          "name": "_fee",
          "type": "uint16"
        }
      ],
      "name": "setFee3Months",
      "outputs": [],
      "stateMutability": "nonpayable",
      "type": "function"
    },
    {
      "inputs": [
        {
          "internalType": "uint16",
          "name": "_fee",
          "type": "uint16"
        }
      ],
      "name": "setFee6Months",
      "outputs": [],
      "stateMutability": "nonpayable",
      "type": "function"
    },
    {
      "inputs": [
        {
          "internalType": "address",
          "name": "_recipient",
          "type": "address"
        },
        {
          "internalType": "uint256",
          "name": "_amount",
          "type": "uint256"
        }
      ],
      "name": "transfer",
      "outputs": [
        {
          "internalType": "bool",
          "name": "",
          "type": "bool"
        }
      ],
      "stateMutability": "nonpayable",
      "type": "function"
    },
    {
      "inputs": [
        {
          "internalType": "uint256",
          "name": "_lockAmount",
          "type": "uint256"
        },
        {
          "internalType": "uint8",
          "name": "_months",
          "type": "uint8"
        }
      ],
      "name": "blockTokens",
      "outputs": [],
      "stateMutability": "nonpayable",
      "type": "function"
    },
    {
      "inputs": [
        {
          "internalType": "address",
          "name": "_account",
          "type": "address"
        }
      ],
      "name": "getUnlockedTokens",
      "outputs": [
        {
          "internalType": "uint256",
          "name": "",
          "type": "uint256"
        },
        {
          "internalType": "uint256",
          "name": "",
          "type": "uint256"
        }
      ],
      "stateMutability": "view",
      "type": "function",
      "constant": true
    },
    {
      "inputs": [],
      "name": "withdrawUnlockedTokens",
      "outputs": [],
      "stateMutability": "nonpayable",
      "type": "function"
    }
  ],
  "bytecode": "0x60806040526012600560146101000a81548160ff021916908360ff1602179055503480156200002d57600080fd5b50604051620039eb380380620039eb833981810160405281019062000053919062000520565b6040518060400160405280600a81526020017f5465737420546f6b656e000000000000000000000000000000000000000000008152506040518060400160405280600681526020017f74544f4b454e00000000000000000000000000000000000000000000000000008152508160039080519060200190620000d792919062000459565b508060049080519060200190620000f092919062000459565b50505062000113620001076200021360201b60201c565b6200021b60201b60201c565b620001253382620002e160201b60201c565b6012600560146101000a81548160ff021916908360ff1602179055506032600560156101000a81548160ff021916908360ff1602179055506103e8600560166101000a81548161ffff021916908361ffff16021790555060058060186101000a81548160ff021916908360ff1602179055506002600560196101000a81548160ff021916908360ff160217905550600580601a6101000a81548161ffff021916908361ffff160217905550600c6005601c6101000a81548161ffff021916908361ffff16021790555060146005601e6101000a81548161ffff021916908361ffff1602179055505062000704565b600033905090565b6000600560009054906101000a900473ffffffffffffffffffffffffffffffffffffffff16905081600560006101000a81548173ffffffffffffffffffffffffffffffffffffffff021916908373ffffffffffffffffffffffffffffffffffffffff1602179055508173ffffffffffffffffffffffffffffffffffffffff168173ffffffffffffffffffffffffffffffffffffffff167f8be0079c531659141344cd1fd0a4f28419497f9722a3daafe3b4186f6b6457e060405160405180910390a35050565b600073ffffffffffffffffffffffffffffffffffffffff168273ffffffffffffffffffffffffffffffffffffffff16141562000354576040517f08c379a00000000000000000000000000000000000000000000000000000000081526004016200034b906200059f565b60405180910390fd5b62000368600083836200044f60201b60201c565b80600260008282546200037c9190620005ef565b92505081905550806000808473ffffffffffffffffffffffffffffffffffffffff1673ffffffffffffffffffffffffffffffffffffffff168152602001908152602001600020600082825401925050819055508173ffffffffffffffffffffffffffffffffffffffff16600073ffffffffffffffffffffffffffffffffffffffff167fddf252ad1be2c89b69c2b068fc378daa952ba7f163c4a11628f55a4df523b3ef836040516200042f9190620005c1565b60405180910390a36200044b600083836200045460201b60201c565b5050565b505050565b505050565b828054620004679062000656565b90600052602060002090601f0160209004810192826200048b5760008555620004d7565b82601f10620004a657805160ff1916838001178555620004d7565b82800160010185558215620004d7579182015b82811115620004d6578251825591602001919060010190620004b9565b5b509050620004e69190620004ea565b5090565b5b8082111562000505576000816000905550600101620004eb565b5090565b6000815190506200051a81620006ea565b92915050565b6000602082840312156200053357600080fd5b6000620005438482850162000509565b91505092915050565b60006200055b601f83620005de565b91507f45524332303a206d696e7420746f20746865207a65726f2061646472657373006000830152602082019050919050565b62000599816200064c565b82525050565b60006020820190508181036000830152620005ba816200054c565b9050919050565b6000602082019050620005d860008301846200058e565b92915050565b600082825260208201905092915050565b6000620005fc826200064c565b915062000609836200064c565b9250827fffffffffffffffffffffffffffffffffffffffffffffffffffffffffffffffff038211156200064157620006406200068c565b5b828201905092915050565b6000819050919050565b600060028204905060018216806200066f57607f821691505b60208210811415620006865762000685620006bb565b5b50919050565b7f4e487b7100000000000000000000000000000000000000000000000000000000600052601160045260246000fd5b7f4e487b7100000000000000000000000000000000000000000000000000000000600052602260045260246000fd5b620006f5816200064c565b81146200070157600080fd5b50565b6132d780620007146000396000f3fe608060405234801561001057600080fd5b50600436106101e55760003560e01c80635a2bcc181161010f578063a457c2d7116100a2578063c806031c11610071578063c806031c14610563578063dd62ed3e14610593578063f2fde38b146105c3578063f53c4c8c146105df576101e5565b8063a457c2d7146104db578063a9059cbb1461050b578063be063bf31461053b578063c17ccc6c14610559576101e5565b8063715018a6116100de578063715018a6146104775780638da5cb5b1461048157806395d89b411461049f578063978bbdb9146104bd576101e5565b80635a2bcc18146103db5780635d16a6f9146103f95780636e5303cd1461042b57806370a0823114610447576101e5565b80631df4d80a11610187578063313ce56711610156578063313ce5671461035557806339509351146103735780635177942a146103a357806359b2be64146103bf576101e5565b80631df4d80a146102cc5780631f803ac3146102ea5780632004ffd91461031b57806323b872dd14610325576101e5565b8063095ea7b3116101c3578063095ea7b3146102445780630aeeaf2314610274578063127f0cc41461029257806318160ddd146102ae576101e5565b8063022a2777146101ea578063051da2c61461020857806306fdde0314610226575b600080fd5b6101f26105fb565b6040516101ff9190612cc0565b60405180910390f35b61021061060f565b60405161021d9190612cc0565b60405180910390f35b61022e610623565b60405161023b9190612a7e565b60405180910390f35b61025e6004803603810190610259919061233e565b6106b5565b60405161026b9190612a63565b60405180910390f35b61027c6106d8565b6040516102899190612cc0565b60405180910390f35b6102ac60048036038101906102a7919061237a565b6106ec565b005b6102b6610714565b6040516102c39190612cdb565b60405180910390f35b6102d461071e565b6040516102e19190612cc0565b60405180910390f35b61030460048036038101906102ff919061228a565b610732565b604051610312929190612cf6565b60405180910390f35b610323610a00565b005b61033f600480360381019061033a91906122ef565b610bbe565b60405161034c9190612a63565b60405180910390f35b61035d610bed565b60405161036a9190612d56565b60405180910390f35b61038d6004803603810190610388919061233e565b610bf6565b60405161039a9190612a63565b60405180910390f35b6103bd60048036038101906103b891906123df565b610c2d565b005b6103d960048036038101906103d4919061237a565b610c9a565b005b6103e3610cc2565b6040516103f09190612d56565b60405180910390f35b610413600480360381019061040e919061233e565b610cd5565b60405161042293929190612d1f565b60405180910390f35b6104456004803603810190610440919061237a565b610d29565b005b610461600480360381019061045c919061228a565b610d51565b60405161046e9190612cdb565b60405180910390f35b61047f610d99565b005b610489610dad565b6040516104969190612a48565b60405180910390f35b6104a7610dd7565b6040516104b49190612a7e565b60405180910390f35b6104c5610e69565b6040516104d29190612d56565b60405180910390f35b6104f560048036038101906104f0919061233e565b610e7c565b6040516105029190612a63565b60405180910390f35b6105256004803603810190610520919061233e565b610ef3565b6040516105329190612a63565b60405180910390f35b610543610f5b565b6040516105509190612d56565b60405180910390f35b610561610f6e565b005b61057d6004803603810190610578919061228a565b611533565b60405161058a9190612cdb565b60405180910390f35b6105ad60048036038101906105a891906122b3565b611599565b6040516105ba9190612cdb565b60405180910390f35b6105dd60048036038101906105d8919061228a565b611620565b005b6105f960048036038101906105f491906123a3565b6116a4565b005b600560169054906101000a900461ffff1681565b6005601a9054906101000a900461ffff1681565b6060600380546106329061311f565b80601f016020809104026020016040519081016040528092919081815260200182805461065e9061311f565b80156106ab5780601f10610680576101008083540402835291602001916106ab565b820191906000526020600020905b81548152906001019060200180831161068e57829003601f168201915b5050505050905090565b6000806106c0611822565b90506106cd81858561182a565b600191505092915050565b6005601c9054906101000a900461ffff1681565b6106f46119f5565b806005601e6101000a81548161ffff021916908361ffff16021790555050565b6000600254905090565b6005601e9054906101000a900461ffff1681565b60008060008060005b600760008773ffffffffffffffffffffffffffffffffffffffff1673ffffffffffffffffffffffffffffffffffffffff168152602001908152602001600020805490508110156109f257600760008773ffffffffffffffffffffffffffffffffffffffff1673ffffffffffffffffffffffffffffffffffffffff16815260200190815260200160002081815481106107fc577f4e487b7100000000000000000000000000000000000000000000000000000000600052603260045260246000fd5b90600052602060002090600302016002015442106109df57600760008773ffffffffffffffffffffffffffffffffffffffff1673ffffffffffffffffffffffffffffffffffffffff168152602001908152602001600020818154811061088b577f4e487b7100000000000000000000000000000000000000000000000000000000600052603260045260246000fd5b906000526020600020906003020160000154836108a89190612d8d565b92506109d1600760008873ffffffffffffffffffffffffffffffffffffffff1673ffffffffffffffffffffffffffffffffffffffff1681526020019081526020016000208281548110610924577f4e487b7100000000000000000000000000000000000000000000000000000000600052603260045260246000fd5b906000526020600020906003020160010160009054906101000a900460ff16600760008973ffffffffffffffffffffffffffffffffffffffff1673ffffffffffffffffffffffffffffffffffffffff16815260200190815260200160002083815481106109ba577f4e487b7100000000000000000000000000000000000000000000000000000000600052603260045260246000fd5b906000526020600020906003020160000154611a73565b826109dc9190612d8d565b91505b80806109ea90613151565b91505061073b565b508181935093505050915091565b6000600560169054906101000a900461ffff1661ffff1611610a57576040517f08c379a0000000000000000000000000000000000000000000000000000000008152600401610a4e90612ae0565b60405180910390fd5b600560189054906101000a900460ff1660ff16600660003373ffffffffffffffffffffffffffffffffffffffff1673ffffffffffffffffffffffffffffffffffffffff1681526020019081526020016000205410610aea576040517f08c379a0000000000000000000000000000000000000000000000000000000008152600401610ae190612c20565b60405180910390fd5b6005601681819054906101000a900461ffff1680929190610b0a906130f5565b91906101000a81548161ffff021916908361ffff16021790555050600660003373ffffffffffffffffffffffffffffffffffffffff1673ffffffffffffffffffffffffffffffffffffffff1681526020019081526020016000206000815480929190610b7590613151565b9190505550610bbc33600560149054906101000a900460ff16600a610b9a9190612e67565b600560159054906101000a900460ff1660ff16610bb79190612fc2565b611b3d565b565b600080610bc9611822565b9050610bd6858285611c94565b610be1858585611d20565b60019150509392505050565b60006012905090565b600080610c01611822565b9050610c22818585610c138589611599565b610c1d9190612d8d565b61182a565b600191505092915050565b610c356119f5565b60648160ff161115610c7c576040517f08c379a0000000000000000000000000000000000000000000000000000000008152600401610c7390612b20565b60405180910390fd5b80600560196101000a81548160ff021916908360ff16021790555050565b610ca26119f5565b806005601c6101000a81548161ffff021916908361ffff16021790555050565b600560159054906101000a900460ff1681565b60076020528160005260406000208181548110610cf157600080fd5b9060005260206000209060030201600091509150508060000154908060010160009054906101000a900460ff16908060020154905083565b610d316119f5565b806005601a6101000a81548161ffff021916908361ffff16021790555050565b60008060008373ffffffffffffffffffffffffffffffffffffffff1673ffffffffffffffffffffffffffffffffffffffff168152602001908152602001600020549050919050565b610da16119f5565b610dab6000611f98565b565b6000600560009054906101000a900473ffffffffffffffffffffffffffffffffffffffff16905090565b606060048054610de69061311f565b80601f0160208091040260200160405190810160405280929190818152602001828054610e129061311f565b8015610e5f5780601f10610e3457610100808354040283529160200191610e5f565b820191906000526020600020905b815481529060010190602001808311610e4257829003601f168201915b5050505050905090565b600560199054906101000a900460ff1681565b600080610e87611822565b90506000610e958286611599565b905083811015610eda576040517f08c379a0000000000000000000000000000000000000000000000000000000008152600401610ed190612c80565b60405180910390fd5b610ee7828686840361182a565b60019250505092915050565b6000806064600560199054906101000a900460ff1660ff1684610f169190612fc2565b610f209190612de3565b9050610f33610f2d611822565b8261205e565b610f50610f3e611822565b858386610f4b919061301c565b611d20565b600191505092915050565b600560189054906101000a900460ff1681565b60008060005b600760003373ffffffffffffffffffffffffffffffffffffffff1673ffffffffffffffffffffffffffffffffffffffff168152602001908152602001600020805490508110156114d657600760003373ffffffffffffffffffffffffffffffffffffffff1673ffffffffffffffffffffffffffffffffffffffff1681526020019081526020016000208181548110611035577f4e487b7100000000000000000000000000000000000000000000000000000000600052603260045260246000fd5b90600052602060002090600302016002015442106114c257600760003373ffffffffffffffffffffffffffffffffffffffff1673ffffffffffffffffffffffffffffffffffffffff16815260200190815260200160002081815481106110c4577f4e487b7100000000000000000000000000000000000000000000000000000000600052603260045260246000fd5b906000526020600020906003020160000154836110e19190612d8d565b925061120a600760003373ffffffffffffffffffffffffffffffffffffffff1673ffffffffffffffffffffffffffffffffffffffff168152602001908152602001600020828154811061115d577f4e487b7100000000000000000000000000000000000000000000000000000000600052603260045260246000fd5b906000526020600020906003020160010160009054906101000a900460ff16600760003373ffffffffffffffffffffffffffffffffffffffff1673ffffffffffffffffffffffffffffffffffffffff16815260200190815260200160002083815481106111f3577f4e487b7100000000000000000000000000000000000000000000000000000000600052603260045260246000fd5b906000526020600020906003020160000154611a73565b826112159190612d8d565b91506001600760003373ffffffffffffffffffffffffffffffffffffffff1673ffffffffffffffffffffffffffffffffffffffff16815260200190815260200160002080549050611266919061301c565b81101561140b57600760003373ffffffffffffffffffffffffffffffffffffffff1673ffffffffffffffffffffffffffffffffffffffff1681526020019081526020016000206001600760003373ffffffffffffffffffffffffffffffffffffffff1673ffffffffffffffffffffffffffffffffffffffff168152602001908152602001600020805490506112fb919061301c565b81548110611332577f4e487b7100000000000000000000000000000000000000000000000000000000600052603260045260246000fd5b9060005260206000209060030201600760003373ffffffffffffffffffffffffffffffffffffffff1673ffffffffffffffffffffffffffffffffffffffff16815260200190815260200160002082815481106113b7577f4e487b7100000000000000000000000000000000000000000000000000000000600052603260045260246000fd5b9060005260206000209060030201600082015481600001556001820160009054906101000a900460ff168160010160006101000a81548160ff021916908360ff160217905550600282015481600201559050505b600760003373ffffffffffffffffffffffffffffffffffffffff1673ffffffffffffffffffffffffffffffffffffffff168152602001908152602001600020805480611480577f4e487b7100000000000000000000000000000000000000000000000000000000600052603160045260246000fd5b60019003818190600052602060002090600302016000808201600090556001820160006101000a81549060ff02191690556002820160009055505090556114d1565b80806114cd90613151565b9150505b610f74565b506000821161151a576040517f08c379a000000000000000000000000000000000000000000000000000000000815260040161151190612c60565b60405180910390fd5b61152f33828461152a9190612d8d565b611b3d565b5050565b6000600660008373ffffffffffffffffffffffffffffffffffffffff1673ffffffffffffffffffffffffffffffffffffffff16815260200190815260200160002054600560189054906101000a900460ff1660ff16611592919061301c565b9050919050565b6000600160008473ffffffffffffffffffffffffffffffffffffffff1673ffffffffffffffffffffffffffffffffffffffff16815260200190815260200160002060008373ffffffffffffffffffffffffffffffffffffffff1673ffffffffffffffffffffffffffffffffffffffff16815260200190815260200160002054905092915050565b6116286119f5565b600073ffffffffffffffffffffffffffffffffffffffff168173ffffffffffffffffffffffffffffffffffffffff161415611698576040517f08c379a000000000000000000000000000000000000000000000000000000000815260040161168f90612b40565b60405180910390fd5b6116a181611f98565b50565b60018160ff1614806116b9575060038160ff16145b806116c7575060068160ff16145b611706576040517f08c379a00000000000000000000000000000000000000000000000000000000081526004016116fd90612aa0565b60405180910390fd5b81611717611712611822565b610d51565b101561172257600080fd5b600062278d008260ff166117369190612f85565b62ffffff16426117469190612d8d565b905060076000611754611822565b73ffffffffffffffffffffffffffffffffffffffff1673ffffffffffffffffffffffffffffffffffffffff16815260200190815260200160002060405180606001604052808581526020018460ff1681526020018381525090806001815401808255809150506001900390600052602060002090600302016000909190919091506000820151816000015560208201518160010160006101000a81548160ff021916908360ff16021790555060408201518160020155505061181d611817611822565b8461205e565b505050565b600033905090565b600073ffffffffffffffffffffffffffffffffffffffff168373ffffffffffffffffffffffffffffffffffffffff16141561189a576040517f08c379a000000000000000000000000000000000000000000000000000000000815260040161189190612c40565b60405180910390fd5b600073ffffffffffffffffffffffffffffffffffffffff168273ffffffffffffffffffffffffffffffffffffffff16141561190a576040517f08c379a000000000000000000000000000000000000000000000000000000000815260040161190190612b60565b60405180910390fd5b80600160008573ffffffffffffffffffffffffffffffffffffffff1673ffffffffffffffffffffffffffffffffffffffff16815260200190815260200160002060008473ffffffffffffffffffffffffffffffffffffffff1673ffffffffffffffffffffffffffffffffffffffff168152602001908152602001600020819055508173ffffffffffffffffffffffffffffffffffffffff168373ffffffffffffffffffffffffffffffffffffffff167f8c5be1e5ebec7d5bd14f71427d1e84f3dd0314c0f7b2291e5b200ac8c7c3b925836040516119e89190612cdb565b60405180910390a3505050565b6119fd611822565b73ffffffffffffffffffffffffffffffffffffffff16611a1b610dad565b73ffffffffffffffffffffffffffffffffffffffff1614611a71576040517f08c379a0000000000000000000000000000000000000000000000000000000008152600401611a6890612bc0565b60405180910390fd5b565b600060018360ff161415611ab45760646005601a9054906101000a900461ffff1661ffff1683611aa39190612fc2565b611aad9190612de3565b9050611b37565b60038360ff161415611af35760646005601c9054906101000a900461ffff1661ffff1683611ae29190612fc2565b611aec9190612de3565b9050611b37565b60068360ff161415611b325760646005601e9054906101000a900461ffff1661ffff1683611b219190612fc2565b611b2b9190612de3565b9050611b37565b600090505b92915050565b600073ffffffffffffffffffffffffffffffffffffffff168273ffffffffffffffffffffffffffffffffffffffff161415611bad576040517f08c379a0000000000000000000000000000000000000000000000000000000008152600401611ba490612ca0565b60405180910390fd5b611bb96000838361222c565b8060026000828254611bcb9190612d8d565b92505081905550806000808473ffffffffffffffffffffffffffffffffffffffff1673ffffffffffffffffffffffffffffffffffffffff168152602001908152602001600020600082825401925050819055508173ffffffffffffffffffffffffffffffffffffffff16600073ffffffffffffffffffffffffffffffffffffffff167fddf252ad1be2c89b69c2b068fc378daa952ba7f163c4a11628f55a4df523b3ef83604051611c7c9190612cdb565b60405180910390a3611c9060008383612231565b5050565b6000611ca08484611599565b90507fffffffffffffffffffffffffffffffffffffffffffffffffffffffffffffffff8114611d1a5781811015611d0c576040517f08c379a0000000000000000000000000000000000000000000000000000000008152600401611d0390612b80565b60405180910390fd5b611d19848484840361182a565b5b50505050565b600073ffffffffffffffffffffffffffffffffffffffff168373ffffffffffffffffffffffffffffffffffffffff161415611d90576040517f08c379a0000000000000000000000000000000000000000000000000000000008152600401611d8790612c00565b60405180910390fd5b600073ffffffffffffffffffffffffffffffffffffffff168273ffffffffffffffffffffffffffffffffffffffff161415611e00576040517f08c379a0000000000000000000000000000000000000000000000000000000008152600401611df790612ac0565b60405180910390fd5b611e0b83838361222c565b60008060008573ffffffffffffffffffffffffffffffffffffffff1673ffffffffffffffffffffffffffffffffffffffff16815260200190815260200160002054905081811015611e91576040517f08c379a0000000000000000000000000000000000000000000000000000000008152600401611e8890612ba0565b60405180910390fd5b8181036000808673ffffffffffffffffffffffffffffffffffffffff1673ffffffffffffffffffffffffffffffffffffffff16815260200190815260200160002081905550816000808573ffffffffffffffffffffffffffffffffffffffff1673ffffffffffffffffffffffffffffffffffffffff168152602001908152602001600020600082825401925050819055508273ffffffffffffffffffffffffffffffffffffffff168473ffffffffffffffffffffffffffffffffffffffff167fddf252ad1be2c89b69c2b068fc378daa952ba7f163c4a11628f55a4df523b3ef84604051611f7f9190612cdb565b60405180910390a3611f92848484612231565b50505050565b6000600560009054906101000a900473ffffffffffffffffffffffffffffffffffffffff16905081600560006101000a81548173ffffffffffffffffffffffffffffffffffffffff021916908373ffffffffffffffffffffffffffffffffffffffff1602179055508173ffffffffffffffffffffffffffffffffffffffff168173ffffffffffffffffffffffffffffffffffffffff167f8be0079c531659141344cd1fd0a4f28419497f9722a3daafe3b4186f6b6457e060405160405180910390a35050565b600073ffffffffffffffffffffffffffffffffffffffff168273ffffffffffffffffffffffffffffffffffffffff1614156120ce576040517f08c379a00000000000000000000000000000000000000000000000000000000081526004016120c590612be0565b60405180910390fd5b6120da8260008361222c565b60008060008473ffffffffffffffffffffffffffffffffffffffff1673ffffffffffffffffffffffffffffffffffffffff16815260200190815260200160002054905081811015612160576040517f08c379a000000000000000000000000000000000000000000000000000000000815260040161215790612b00565b60405180910390fd5b8181036000808573ffffffffffffffffffffffffffffffffffffffff1673ffffffffffffffffffffffffffffffffffffffff1681526020019081526020016000208190555081600260008282540392505081905550600073ffffffffffffffffffffffffffffffffffffffff168373ffffffffffffffffffffffffffffffffffffffff167fddf252ad1be2c89b69c2b068fc378daa952ba7f163c4a11628f55a4df523b3ef846040516122139190612cdb565b60405180910390a361222783600084612231565b505050565b505050565b505050565b60008135905061224581613245565b92915050565b60008135905061225a8161325c565b92915050565b60008135905061226f81613273565b92915050565b6000813590506122848161328a565b92915050565b60006020828403121561229c57600080fd5b60006122aa84828501612236565b91505092915050565b600080604083850312156122c657600080fd5b60006122d485828601612236565b92505060206122e585828601612236565b9150509250929050565b60008060006060848603121561230457600080fd5b600061231286828701612236565b935050602061232386828701612236565b925050604061233486828701612260565b9150509250925092565b6000806040838503121561235157600080fd5b600061235f85828601612236565b925050602061237085828601612260565b9150509250929050565b60006020828403121561238c57600080fd5b600061239a8482850161224b565b91505092915050565b600080604083850312156123b657600080fd5b60006123c485828601612260565b92505060206123d585828601612275565b9150509250929050565b6000602082840312156123f157600080fd5b60006123ff84828501612275565b91505092915050565b61241181613050565b82525050565b61242081613062565b82525050565b600061243182612d71565b61243b8185612d7c565b935061244b8185602086016130c2565b61245481613227565b840191505092915050565b600061246c601583612d7c565b91507f496e76616c6964206c6f636b757020706572696f6400000000000000000000006000830152602082019050919050565b60006124ac602383612d7c565b91507f45524332303a207472616e7366657220746f20746865207a65726f206164647260008301527f65737300000000000000000000000000000000000000000000000000000000006020830152604082019050919050565b6000612512601483612d7c565b91507f4d6178696d756d206d696e7420726561636865640000000000000000000000006000830152602082019050919050565b6000612552602283612d7c565b91507f45524332303a206275726e20616d6f756e7420657863656564732062616c616e60008301527f63650000000000000000000000000000000000000000000000000000000000006020830152604082019050919050565b60006125b8601383612d7c565b91507f52617465206d757374206265203c3d20313030000000000000000000000000006000830152602082019050919050565b60006125f8602683612d7c565b91507f4f776e61626c653a206e6577206f776e657220697320746865207a65726f206160008301527f64647265737300000000000000000000000000000000000000000000000000006020830152604082019050919050565b600061265e602283612d7c565b91507f45524332303a20617070726f766520746f20746865207a65726f20616464726560008301527f73730000000000000000000000000000000000000000000000000000000000006020830152604082019050919050565b60006126c4601d83612d7c565b91507f45524332303a20696e73756666696369656e7420616c6c6f77616e63650000006000830152602082019050919050565b6000612704602683612d7c565b91507f45524332303a207472616e7366657220616d6f756e742065786365656473206260008301527f616c616e636500000000000000000000000000000000000000000000000000006020830152604082019050919050565b600061276a602083612d7c565b91507f4f776e61626c653a2063616c6c6572206973206e6f7420746865206f776e65726000830152602082019050919050565b60006127aa602183612d7c565b91507f45524332303a206275726e2066726f6d20746865207a65726f2061646472657360008301527f73000000000000000000000000000000000000000000000000000000000000006020830152604082019050919050565b6000612810602583612d7c565b91507f45524332303a207472616e736665722066726f6d20746865207a65726f20616460008301527f64726573730000000000000000000000000000000000000000000000000000006020830152604082019050919050565b6000612876602483612d7c565b91507f4d6178696d756d206d696e74207265616368656420666f72207468652061636360008301527f6f756e74000000000000000000000000000000000000000000000000000000006020830152604082019050919050565b60006128dc602483612d7c565b91507f45524332303a20617070726f76652066726f6d20746865207a65726f2061646460008301527f72657373000000000000000000000000000000000000000000000000000000006020830152604082019050919050565b6000612942601c83612d7c565b91507f4e6f20756e6c6f636b656420746f6b656e7320617661696c61626c65000000006000830152602082019050919050565b6000612982602583612d7c565b91507f45524332303a2064656372656173656420616c6c6f77616e63652062656c6f7760008301527f207a65726f0000000000000000000000000000000000000000000000000000006020830152604082019050919050565b60006129e8601f83612d7c565b91507f45524332303a206d696e7420746f20746865207a65726f2061646472657373006000830152602082019050919050565b612a248161306e565b82525050565b612a33816130ab565b82525050565b612a42816130b5565b82525050565b6000602082019050612a5d6000830184612408565b92915050565b6000602082019050612a786000830184612417565b92915050565b60006020820190508181036000830152612a988184612426565b905092915050565b60006020820190508181036000830152612ab98161245f565b9050919050565b60006020820190508181036000830152612ad98161249f565b9050919050565b60006020820190508181036000830152612af981612505565b9050919050565b60006020820190508181036000830152612b1981612545565b9050919050565b60006020820190508181036000830152612b39816125ab565b9050919050565b60006020820190508181036000830152612b59816125eb565b9050919050565b60006020820190508181036000830152612b7981612651565b9050919050565b60006020820190508181036000830152612b99816126b7565b9050919050565b60006020820190508181036000830152612bb9816126f7565b9050919050565b60006020820190508181036000830152612bd98161275d565b9050919050565b60006020820190508181036000830152612bf98161279d565b9050919050565b60006020820190508181036000830152612c1981612803565b9050919050565b60006020820190508181036000830152612c3981612869565b9050919050565b60006020820190508181036000830152612c59816128cf565b9050919050565b60006020820190508181036000830152612c7981612935565b9050919050565b60006020820190508181036000830152612c9981612975565b9050919050565b60006020820190508181036000830152612cb9816129db565b9050919050565b6000602082019050612cd56000830184612a1b565b92915050565b6000602082019050612cf06000830184612a2a565b92915050565b6000604082019050612d0b6000830185612a2a565b612d186020830184612a2a565b9392505050565b6000606082019050612d346000830186612a2a565b612d416020830185612a39565b612d4e6040830184612a2a565b949350505050565b6000602082019050612d6b6000830184612a39565b92915050565b600081519050919050565b600082825260208201905092915050565b6000612d98826130ab565b9150612da3836130ab565b9250827fffffffffffffffffffffffffffffffffffffffffffffffffffffffffffffffff03821115612dd857612dd761319a565b5b828201905092915050565b6000612dee826130ab565b9150612df9836130ab565b925082612e0957612e086131c9565b5b828204905092915050565b6000808291508390505b6001851115612e5e57808604811115612e3a57612e3961319a565b5b6001851615612e495780820291505b8081029050612e5785613238565b9450612e1e565b94509492505050565b6000612e72826130ab565b9150612e7d836130b5565b9250612eaa7fffffffffffffffffffffffffffffffffffffffffffffffffffffffffffffffff8484612eb2565b905092915050565b600082612ec25760019050612f7e565b81612ed05760009050612f7e565b8160018114612ee65760028114612ef057612f1f565b6001915050612f7e565b60ff841115612f0257612f0161319a565b5b8360020a915084821115612f1957612f1861319a565b5b50612f7e565b5060208310610133831016604e8410600b8410161715612f545782820a905083811115612f4f57612f4e61319a565b5b612f7e565b612f618484846001612e14565b92509050818404811115612f7857612f7761319a565b5b81810290505b9392505050565b6000612f908261309c565b9150612f9b8361309c565b92508162ffffff0483118215151615612fb757612fb661319a565b5b828202905092915050565b6000612fcd826130ab565b9150612fd8836130ab565b9250817fffffffffffffffffffffffffffffffffffffffffffffffffffffffffffffffff04831182151516156130115761301061319a565b5b828202905092915050565b6000613027826130ab565b9150613032836130ab565b9250828210156130455761304461319a565b5b828203905092915050565b600061305b8261307c565b9050919050565b60008115159050919050565b600061ffff82169050919050565b600073ffffffffffffffffffffffffffffffffffffffff82169050919050565b600062ffffff82169050919050565b6000819050919050565b600060ff82169050919050565b60005b838110156130e05780820151818401526020810190506130c5565b838111156130ef576000848401525b50505050565b60006131008261306e565b915060008214156131145761311361319a565b5b600182039050919050565b6000600282049050600182168061313757607f821691505b6020821081141561314b5761314a6131f8565b5b50919050565b600061315c826130ab565b91507fffffffffffffffffffffffffffffffffffffffffffffffffffffffffffffffff82141561318f5761318e61319a565b5b600182019050919050565b7f4e487b7100000000000000000000000000000000000000000000000000000000600052601160045260246000fd5b7f4e487b7100000000000000000000000000000000000000000000000000000000600052601260045260246000fd5b7f4e487b7100000000000000000000000000000000000000000000000000000000600052602260045260246000fd5b6000601f19601f8301169050919050565b60008160011c9050919050565b61324e81613050565b811461325957600080fd5b50565b6132658161306e565b811461327057600080fd5b50565b61327c816130ab565b811461328757600080fd5b50565b613293816130b5565b811461329e57600080fd5b5056fea2646970667358221220a43764486997710e71333594c1f7d40c93a863111ecfc1cda949c84ad904356c64736f6c63430008000033",
  "immutableReferences": {},
  "source": "// SPDX-License-Identifier: MIT\r\npragma solidity ^0.8.0;\r\n\r\nimport \"@openzeppelin/contracts/token/ERC20/ERC20.sol\";\r\nimport \"@openzeppelin/contracts/access/Ownable.sol\";\r\n\r\ncontract tToken is ERC20, Ownable {\r\n    uint8 digits = 18;\r\n    uint8 public mintAmount;\r\n    uint16 public mintLeft;\r\n    uint8 public mintForAccount;\r\n    uint8 public feeRate;\r\n    uint16 public fee1Month;\r\n    uint16 public fee3Months;\r\n    uint16 public fee6Months;\r\n\r\n    constructor(uint256 initialSupply) ERC20(\"Test Token\", \"tTOKEN\") {\r\n        _mint(msg.sender, initialSupply);\r\n        digits = 18;\r\n        mintAmount = 50;\r\n        mintLeft = 1000;\r\n        mintForAccount = 5;\r\n        feeRate = 2;\r\n        fee1Month = 5;\r\n        fee3Months = 12;\r\n        fee6Months = 20;\r\n    }\r\n\r\n    mapping(address => uint256) private _mintLeftAccount;\r\n    \r\n    function mintToken() public {\r\n        require(mintLeft > 0, \"Maximum mint reached\");\r\n        require(_mintLeftAccount[msg.sender] < mintForAccount, \"Maximum mint reached for the account\");\r\n        mintLeft--;\r\n        _mintLeftAccount[msg.sender]++;\r\n        _mint(msg.sender, mintAmount * 10 ** digits);\r\n    }\r\n\r\n    function mintLeftAddress(address _account) public view returns (uint) {\r\n        return mintForAccount - _mintLeftAccount[_account];\r\n    }\r\n\r\n\r\n    function setFeeRate(uint8 _rate) external onlyOwner {\r\n        require(_rate <= 100, \"Rate must be <= 100\"); // Ensure the rate is a valid percentage\r\n        feeRate = _rate;\r\n    }\r\n\r\n    function setFee1Month(uint16 _fee) external onlyOwner {\r\n        fee1Month = _fee;\r\n    }\r\n    function setFee3Months(uint16 _fee) external onlyOwner {\r\n        fee3Months = _fee;\r\n    }\r\n    function setFee6Months(uint16 _fee) external onlyOwner {\r\n        fee6Months = _fee;\r\n    }\r\n\r\n    function transfer(address _recipient, uint256 _amount) public override returns (bool) {\r\n        uint256 feeAmount = (_amount * feeRate) / 100;\r\n\r\n        _burn(_msgSender(), feeAmount);\r\n        _transfer(_msgSender(), _recipient, _amount - feeAmount);\r\n        return true;\r\n    }\r\n\r\n    struct LockedTokens {\r\n        uint256 amount;\r\n        uint8 months;\r\n        uint256 releaseTime;\r\n    }\r\n\r\n    mapping(address => LockedTokens[]) public lockedBalances;\r\n\r\n    function blockTokens(uint256 _lockAmount, uint8 _months) public {\r\n        require(_months == 1 || _months == 3 || _months == 6, \"Invalid lockup period\");\r\n        require(balanceOf(_msgSender()) >= _lockAmount);\r\n\r\n        // Calculate when the locked tokens will be available for withdrawal\r\n        uint256 releaseTime = block.timestamp + _months * 30 days;\r\n        lockedBalances[_msgSender()].push(LockedTokens({ amount: _lockAmount, months: _months, releaseTime: releaseTime }));\r\n\r\n        _burn(_msgSender(), _lockAmount);\r\n    }\r\n\r\n    function rewardsCalculation(uint8 _months, uint256 _amount) internal view returns (uint256) {\r\n        if (_months == 1) {\r\n            return _amount * fee1Month / 100;\r\n        }\r\n        if (_months == 3) {\r\n            return _amount * fee3Months / 100;\r\n        }\r\n        if (_months == 6) {\r\n            return _amount * fee6Months / 100;\r\n        }\r\n        return 0;\r\n    }\r\n\r\n    function getUnlockedTokens(address _account) public view returns (uint256, uint256) {\r\n        uint256 unlockedAmount = 0;\r\n        uint256 rewardsAmount = 0;\r\n\r\n        for (uint256 i = 0; i < lockedBalances[_account].length;) {\r\n            if (block.timestamp >= lockedBalances[_account][i].releaseTime) {\r\n                // token unlocking calculation\r\n                unlockedAmount += lockedBalances[_account][i].amount;\r\n                // reward calculation\r\n                rewardsAmount += rewardsCalculation(lockedBalances[_account][i].months, lockedBalances[_account][i].amount);\r\n            }\r\n            i++;\r\n        }\r\n        return (unlockedAmount, rewardsAmount);\r\n    }\r\n\r\n    function withdrawUnlockedTokens() public {\r\n        uint256 unlockedAmount = 0;\r\n        uint256 rewardsAmount = 0;\r\n\r\n        for (uint256 i = 0; i < lockedBalances[msg.sender].length;) {\r\n            // expiration check of blocked tokens\r\n            if (block.timestamp >= lockedBalances[msg.sender][i].releaseTime) {\r\n                // adding token to unlock\r\n                unlockedAmount += lockedBalances[msg.sender][i].amount;\r\n                // reward calculation\r\n                rewardsAmount += rewardsCalculation(lockedBalances[msg.sender][i].months, lockedBalances[msg.sender][i].amount);\r\n\r\n                if (i < lockedBalances[msg.sender].length - 1) {\r\n                    lockedBalances[msg.sender][i] = lockedBalances[msg.sender][lockedBalances[msg.sender].length - 1];\r\n                }\r\n                lockedBalances[msg.sender].pop();\r\n            } else {\r\n                i++;\r\n            }\r\n        }\r\n        require(unlockedAmount > 0, \"No unlocked tokens available\");\r\n        _mint(msg.sender, unlockedAmount + rewardsAmount);\r\n    }\r\n\r\n}\r\n",
  "sourcePath": "a:\\haru\\Mega\\Code\\Templates\\Start2Impact\\Progetto Solidity\\Progetto Ethereum Web3 di Dennis Ponzio\\ethereumWeb3\\truffle\\contracts\\tToken.sol",
  "compiler": {
    "name": "solc",
    "version": "0.8.0+commit.c7dfd78e.Emscripten.clang"
  },
  "schemaVersion": "3.4.14",
  "updatedAt": "2023-08-18T09:03:16.012Z",
  "networkType": "ethereum",
  "devdoc": {
    "kind": "dev",
    "methods": {
      "allowance(address,address)": {
        "details": "See {IERC20-allowance}."
      },
      "approve(address,uint256)": {
        "details": "See {IERC20-approve}. NOTE: If `amount` is the maximum `uint256`, the allowance is not updated on `transferFrom`. This is semantically equivalent to an infinite approval. Requirements: - `spender` cannot be the zero address."
      },
      "balanceOf(address)": {
        "details": "See {IERC20-balanceOf}."
      },
      "decimals()": {
        "details": "Returns the number of decimals used to get its user representation. For example, if `decimals` equals `2`, a balance of `505` tokens should be displayed to a user as `5.05` (`505 / 10 ** 2`). Tokens usually opt for a value of 18, imitating the relationship between Ether and Wei. This is the default value returned by this function, unless it's overridden. NOTE: This information is only used for _display_ purposes: it in no way affects any of the arithmetic of the contract, including {IERC20-balanceOf} and {IERC20-transfer}."
      },
      "decreaseAllowance(address,uint256)": {
        "details": "Atomically decreases the allowance granted to `spender` by the caller. This is an alternative to {approve} that can be used as a mitigation for problems described in {IERC20-approve}. Emits an {Approval} event indicating the updated allowance. Requirements: - `spender` cannot be the zero address. - `spender` must have allowance for the caller of at least `subtractedValue`."
      },
      "increaseAllowance(address,uint256)": {
        "details": "Atomically increases the allowance granted to `spender` by the caller. This is an alternative to {approve} that can be used as a mitigation for problems described in {IERC20-approve}. Emits an {Approval} event indicating the updated allowance. Requirements: - `spender` cannot be the zero address."
      },
      "name()": {
        "details": "Returns the name of the token."
      },
      "owner()": {
        "details": "Returns the address of the current owner."
      },
      "renounceOwnership()": {
        "details": "Leaves the contract without owner. It will not be possible to call `onlyOwner` functions. Can only be called by the current owner. NOTE: Renouncing ownership will leave the contract without an owner, thereby disabling any functionality that is only available to the owner."
      },
      "symbol()": {
        "details": "Returns the symbol of the token, usually a shorter version of the name."
      },
      "totalSupply()": {
        "details": "See {IERC20-totalSupply}."
      },
      "transferFrom(address,address,uint256)": {
        "details": "See {IERC20-transferFrom}. Emits an {Approval} event indicating the updated allowance. This is not required by the EIP. See the note at the beginning of {ERC20}. NOTE: Does not update the allowance if the current allowance is the maximum `uint256`. Requirements: - `from` and `to` cannot be the zero address. - `from` must have a balance of at least `amount`. - the caller must have allowance for ``from``'s tokens of at least `amount`."
      },
      "transferOwnership(address)": {
        "details": "Transfers ownership of the contract to a new account (`newOwner`). Can only be called by the current owner."
      }
    },
    "version": 1
  },
  "userdoc": {
    "kind": "user",
    "methods": {},
    "version": 1
  }
}