{
  "contractName": "tToken",
  "abi": [
    {
      "inputs": [
        {
          "internalType": "uint256",
          "name": "initialSupply",
          "type": "uint256"
        }
      ],
      "stateMutability": "nonpayable",
      "type": "constructor"
    },
    {
      "anonymous": false,
      "inputs": [
        {
          "indexed": true,
          "internalType": "address",
          "name": "owner",
          "type": "address"
        },
        {
          "indexed": true,
          "internalType": "address",
          "name": "spender",
          "type": "address"
        },
        {
          "indexed": false,
          "internalType": "uint256",
          "name": "value",
          "type": "uint256"
        }
      ],
      "name": "Approval",
      "type": "event"
    },
    {
      "anonymous": false,
      "inputs": [
        {
          "indexed": true,
          "internalType": "address",
          "name": "from",
          "type": "address"
        },
        {
          "indexed": true,
          "internalType": "address",
          "name": "to",
          "type": "address"
        },
        {
          "indexed": false,
          "internalType": "uint256",
          "name": "value",
          "type": "uint256"
        }
      ],
      "name": "Transfer",
      "type": "event"
    },
    {
      "inputs": [
        {
          "internalType": "address",
          "name": "owner",
          "type": "address"
        },
        {
          "internalType": "address",
          "name": "spender",
          "type": "address"
        }
      ],
      "name": "allowance",
      "outputs": [
        {
          "internalType": "uint256",
          "name": "",
          "type": "uint256"
        }
      ],
      "stateMutability": "view",
      "type": "function",
      "constant": true
    },
    {
      "inputs": [
        {
          "internalType": "address",
          "name": "spender",
          "type": "address"
        },
        {
          "internalType": "uint256",
          "name": "amount",
          "type": "uint256"
        }
      ],
      "name": "approve",
      "outputs": [
        {
          "internalType": "bool",
          "name": "",
          "type": "bool"
        }
      ],
      "stateMutability": "nonpayable",
      "type": "function"
    },
    {
      "inputs": [
        {
          "internalType": "address",
          "name": "account",
          "type": "address"
        }
      ],
      "name": "balanceOf",
      "outputs": [
        {
          "internalType": "uint256",
          "name": "",
          "type": "uint256"
        }
      ],
      "stateMutability": "view",
      "type": "function",
      "constant": true
    },
    {
      "inputs": [],
      "name": "decimals",
      "outputs": [
        {
          "internalType": "uint8",
          "name": "",
          "type": "uint8"
        }
      ],
      "stateMutability": "view",
      "type": "function",
      "constant": true
    },
    {
      "inputs": [
        {
          "internalType": "address",
          "name": "spender",
          "type": "address"
        },
        {
          "internalType": "uint256",
          "name": "subtractedValue",
          "type": "uint256"
        }
      ],
      "name": "decreaseAllowance",
      "outputs": [
        {
          "internalType": "bool",
          "name": "",
          "type": "bool"
        }
      ],
      "stateMutability": "nonpayable",
      "type": "function"
    },
    {
      "inputs": [
        {
          "internalType": "address",
          "name": "spender",
          "type": "address"
        },
        {
          "internalType": "uint256",
          "name": "addedValue",
          "type": "uint256"
        }
      ],
      "name": "increaseAllowance",
      "outputs": [
        {
          "internalType": "bool",
          "name": "",
          "type": "bool"
        }
      ],
      "stateMutability": "nonpayable",
      "type": "function"
    },
    {
      "inputs": [],
      "name": "name",
      "outputs": [
        {
          "internalType": "string",
          "name": "",
          "type": "string"
        }
      ],
      "stateMutability": "view",
      "type": "function",
      "constant": true
    },
    {
      "inputs": [],
      "name": "symbol",
      "outputs": [
        {
          "internalType": "string",
          "name": "",
          "type": "string"
        }
      ],
      "stateMutability": "view",
      "type": "function",
      "constant": true
    },
    {
      "inputs": [],
      "name": "totalSupply",
      "outputs": [
        {
          "internalType": "uint256",
          "name": "",
          "type": "uint256"
        }
      ],
      "stateMutability": "view",
      "type": "function",
      "constant": true
    },
    {
      "inputs": [
        {
          "internalType": "address",
          "name": "to",
          "type": "address"
        },
        {
          "internalType": "uint256",
          "name": "amount",
          "type": "uint256"
        }
      ],
      "name": "transfer",
      "outputs": [
        {
          "internalType": "bool",
          "name": "",
          "type": "bool"
        }
      ],
      "stateMutability": "nonpayable",
      "type": "function"
    },
    {
      "inputs": [
        {
          "internalType": "address",
          "name": "from",
          "type": "address"
        },
        {
          "internalType": "address",
          "name": "to",
          "type": "address"
        },
        {
          "internalType": "uint256",
          "name": "amount",
          "type": "uint256"
        }
      ],
      "name": "transferFrom",
      "outputs": [
        {
          "internalType": "bool",
          "name": "",
          "type": "bool"
        }
      ],
      "stateMutability": "nonpayable",
      "type": "function"
    },
    {
      "inputs": [],
      "name": "mintToken",
      "outputs": [],
      "stateMutability": "nonpayable",
      "type": "function"
    },
    {
      "inputs": [],
      "name": "mintLeft",
      "outputs": [
        {
          "internalType": "uint256",
          "name": "",
          "type": "uint256"
        }
      ],
      "stateMutability": "view",
      "type": "function",
      "constant": true
    },
    {
      "inputs": [
        {
          "internalType": "address",
          "name": "_account",
          "type": "address"
        }
      ],
      "name": "mintLeftAddress",
      "outputs": [
        {
          "internalType": "uint256",
          "name": "",
          "type": "uint256"
        }
      ],
      "stateMutability": "view",
      "type": "function",
      "constant": true
    },
    {
      "inputs": [],
      "name": "mintAmount",
      "outputs": [
        {
          "internalType": "uint256",
          "name": "",
          "type": "uint256"
        }
      ],
      "stateMutability": "view",
      "type": "function",
      "constant": true
    }
  ],
  "bytecode": "0x6080604052601260055560326006556103e860075560056008553480156200002657600080fd5b5060405162001ed238038062001ed283398181016040528101906200004c919062000344565b6040518060400160405280600a81526020017f5465737420546f6b656e000000000000000000000000000000000000000000008152506040518060400160405280600681526020017f74544f4b454e00000000000000000000000000000000000000000000000000008152508160039080519060200190620000d09291906200027d565b508060049080519060200190620000e99291906200027d565b505050620000fe33826200010560201b60201c565b5062000528565b600073ffffffffffffffffffffffffffffffffffffffff168273ffffffffffffffffffffffffffffffffffffffff16141562000178576040517f08c379a00000000000000000000000000000000000000000000000000000000081526004016200016f90620003c3565b60405180910390fd5b6200018c600083836200027360201b60201c565b8060026000828254620001a0919062000413565b92505081905550806000808473ffffffffffffffffffffffffffffffffffffffff1673ffffffffffffffffffffffffffffffffffffffff168152602001908152602001600020600082825401925050819055508173ffffffffffffffffffffffffffffffffffffffff16600073ffffffffffffffffffffffffffffffffffffffff167fddf252ad1be2c89b69c2b068fc378daa952ba7f163c4a11628f55a4df523b3ef83604051620002539190620003e5565b60405180910390a36200026f600083836200027860201b60201c565b5050565b505050565b505050565b8280546200028b906200047a565b90600052602060002090601f016020900481019282620002af5760008555620002fb565b82601f10620002ca57805160ff1916838001178555620002fb565b82800160010185558215620002fb579182015b82811115620002fa578251825591602001919060010190620002dd565b5b5090506200030a91906200030e565b5090565b5b80821115620003295760008160009055506001016200030f565b5090565b6000815190506200033e816200050e565b92915050565b6000602082840312156200035757600080fd5b600062000367848285016200032d565b91505092915050565b60006200037f601f8362000402565b91507f45524332303a206d696e7420746f20746865207a65726f2061646472657373006000830152602082019050919050565b620003bd8162000470565b82525050565b60006020820190508181036000830152620003de8162000370565b9050919050565b6000602082019050620003fc6000830184620003b2565b92915050565b600082825260208201905092915050565b6000620004208262000470565b91506200042d8362000470565b9250827fffffffffffffffffffffffffffffffffffffffffffffffffffffffffffffffff03821115620004655762000464620004b0565b5b828201905092915050565b6000819050919050565b600060028204905060018216806200049357607f821691505b60208210811415620004aa57620004a9620004df565b5b50919050565b7f4e487b7100000000000000000000000000000000000000000000000000000000600052601160045260246000fd5b7f4e487b7100000000000000000000000000000000000000000000000000000000600052602260045260246000fd5b620005198162000470565b81146200052557600080fd5b50565b61199a80620005386000396000f3fe608060405234801561001057600080fd5b50600436106100f55760003560e01c80633950935111610097578063a457c2d711610066578063a457c2d714610278578063a9059cbb146102a8578063c806031c146102d8578063dd62ed3e14610308576100f5565b806339509351146101dc5780635a2bcc181461020c57806370a082311461022a57806395d89b411461025a576100f5565b806318160ddd116100d357806318160ddd146101665780632004ffd91461018457806323b872dd1461018e578063313ce567146101be576100f5565b8063022a2777146100fa57806306fdde0314610118578063095ea7b314610136575b600080fd5b610102610338565b60405161010f91906114e6565b60405180910390f35b610120610342565b60405161012d9190611384565b60405180910390f35b610150600480360381019061014b9190610f3d565b6103d4565b60405161015d9190611369565b60405180910390f35b61016e6103f7565b60405161017b91906114e6565b60405180910390f35b61018c610401565b005b6101a860048036038101906101a39190610eee565b61055d565b6040516101b59190611369565b60405180910390f35b6101c661058c565b6040516101d39190611501565b60405180910390f35b6101f660048036038101906101f19190610f3d565b610595565b6040516102039190611369565b60405180910390f35b6102146105cc565b60405161022191906114e6565b60405180910390f35b610244600480360381019061023f9190610e89565b6105d6565b60405161025191906114e6565b60405180910390f35b61026261061e565b60405161026f9190611384565b60405180910390f35b610292600480360381019061028d9190610f3d565b6106b0565b60405161029f9190611369565b60405180910390f35b6102c260048036038101906102bd9190610f3d565b610727565b6040516102cf9190611369565b60405180910390f35b6102f260048036038101906102ed9190610e89565b61074a565b6040516102ff91906114e6565b60405180910390f35b610322600480360381019061031d9190610eb2565b6107a0565b60405161032f91906114e6565b60405180910390f35b6000600754905090565b6060600380546103519061183f565b80601f016020809104026020016040519081016040528092919081815260200182805461037d9061183f565b80156103ca5780601f1061039f576101008083540402835291602001916103ca565b820191906000526020600020905b8154815290600101906020018083116103ad57829003601f168201915b5050505050905090565b6000806103df610827565b90506103ec81858561082f565b600191505092915050565b6000600254905090565b600060075411610446576040517f08c379a000000000000000000000000000000000000000000000000000000000815260040161043d906113c6565b60405180910390fd5b600854600960003373ffffffffffffffffffffffffffffffffffffffff1673ffffffffffffffffffffffffffffffffffffffff16815260200190815260200160002054106104c9576040517f08c379a00000000000000000000000000000000000000000000000000000000081526004016104c090611466565b60405180910390fd5b6104ee33600554600a6104dc91906115e1565b6006546104e991906116ff565b6109fa565b6007600081548092919061050190611815565b9190505550600960003373ffffffffffffffffffffffffffffffffffffffff1673ffffffffffffffffffffffffffffffffffffffff168152602001908152602001600020600081548092919061055690611871565b9190505550565b600080610568610827565b9050610575858285610b51565b610580858585610bdd565b60019150509392505050565b60006012905090565b6000806105a0610827565b90506105c18185856105b285896107a0565b6105bc9190611538565b61082f565b600191505092915050565b6000600654905090565b60008060008373ffffffffffffffffffffffffffffffffffffffff1673ffffffffffffffffffffffffffffffffffffffff168152602001908152602001600020549050919050565b60606004805461062d9061183f565b80601f01602080910402602001604051908101604052809291908181526020018280546106599061183f565b80156106a65780601f1061067b576101008083540402835291602001916106a6565b820191906000526020600020905b81548152906001019060200180831161068957829003601f168201915b5050505050905090565b6000806106bb610827565b905060006106c982866107a0565b90508381101561070e576040517f08c379a0000000000000000000000000000000000000000000000000000000008152600401610705906114a6565b60405180910390fd5b61071b828686840361082f565b60019250505092915050565b600080610732610827565b905061073f818585610bdd565b600191505092915050565b6000600960008373ffffffffffffffffffffffffffffffffffffffff1673ffffffffffffffffffffffffffffffffffffffff168152602001908152602001600020546008546107999190611759565b9050919050565b6000600160008473ffffffffffffffffffffffffffffffffffffffff1673ffffffffffffffffffffffffffffffffffffffff16815260200190815260200160002060008373ffffffffffffffffffffffffffffffffffffffff1673ffffffffffffffffffffffffffffffffffffffff16815260200190815260200160002054905092915050565b600033905090565b600073ffffffffffffffffffffffffffffffffffffffff168373ffffffffffffffffffffffffffffffffffffffff16141561089f576040517f08c379a000000000000000000000000000000000000000000000000000000000815260040161089690611486565b60405180910390fd5b600073ffffffffffffffffffffffffffffffffffffffff168273ffffffffffffffffffffffffffffffffffffffff16141561090f576040517f08c379a0000000000000000000000000000000000000000000000000000000008152600401610906906113e6565b60405180910390fd5b80600160008573ffffffffffffffffffffffffffffffffffffffff1673ffffffffffffffffffffffffffffffffffffffff16815260200190815260200160002060008473ffffffffffffffffffffffffffffffffffffffff1673ffffffffffffffffffffffffffffffffffffffff168152602001908152602001600020819055508173ffffffffffffffffffffffffffffffffffffffff168373ffffffffffffffffffffffffffffffffffffffff167f8c5be1e5ebec7d5bd14f71427d1e84f3dd0314c0f7b2291e5b200ac8c7c3b925836040516109ed91906114e6565b60405180910390a3505050565b600073ffffffffffffffffffffffffffffffffffffffff168273ffffffffffffffffffffffffffffffffffffffff161415610a6a576040517f08c379a0000000000000000000000000000000000000000000000000000000008152600401610a61906114c6565b60405180910390fd5b610a7660008383610e55565b8060026000828254610a889190611538565b92505081905550806000808473ffffffffffffffffffffffffffffffffffffffff1673ffffffffffffffffffffffffffffffffffffffff168152602001908152602001600020600082825401925050819055508173ffffffffffffffffffffffffffffffffffffffff16600073ffffffffffffffffffffffffffffffffffffffff167fddf252ad1be2c89b69c2b068fc378daa952ba7f163c4a11628f55a4df523b3ef83604051610b3991906114e6565b60405180910390a3610b4d60008383610e5a565b5050565b6000610b5d84846107a0565b90507fffffffffffffffffffffffffffffffffffffffffffffffffffffffffffffffff8114610bd75781811015610bc9576040517f08c379a0000000000000000000000000000000000000000000000000000000008152600401610bc090611406565b60405180910390fd5b610bd6848484840361082f565b5b50505050565b600073ffffffffffffffffffffffffffffffffffffffff168373ffffffffffffffffffffffffffffffffffffffff161415610c4d576040517f08c379a0000000000000000000000000000000000000000000000000000000008152600401610c4490611446565b60405180910390fd5b600073ffffffffffffffffffffffffffffffffffffffff168273ffffffffffffffffffffffffffffffffffffffff161415610cbd576040517f08c379a0000000000000000000000000000000000000000000000000000000008152600401610cb4906113a6565b60405180910390fd5b610cc8838383610e55565b60008060008573ffffffffffffffffffffffffffffffffffffffff1673ffffffffffffffffffffffffffffffffffffffff16815260200190815260200160002054905081811015610d4e576040517f08c379a0000000000000000000000000000000000000000000000000000000008152600401610d4590611426565b60405180910390fd5b8181036000808673ffffffffffffffffffffffffffffffffffffffff1673ffffffffffffffffffffffffffffffffffffffff16815260200190815260200160002081905550816000808573ffffffffffffffffffffffffffffffffffffffff1673ffffffffffffffffffffffffffffffffffffffff168152602001908152602001600020600082825401925050819055508273ffffffffffffffffffffffffffffffffffffffff168473ffffffffffffffffffffffffffffffffffffffff167fddf252ad1be2c89b69c2b068fc378daa952ba7f163c4a11628f55a4df523b3ef84604051610e3c91906114e6565b60405180910390a3610e4f848484610e5a565b50505050565b505050565b505050565b600081359050610e6e81611936565b92915050565b600081359050610e838161194d565b92915050565b600060208284031215610e9b57600080fd5b6000610ea984828501610e5f565b91505092915050565b60008060408385031215610ec557600080fd5b6000610ed385828601610e5f565b9250506020610ee485828601610e5f565b9150509250929050565b600080600060608486031215610f0357600080fd5b6000610f1186828701610e5f565b9350506020610f2286828701610e5f565b9250506040610f3386828701610e74565b9150509250925092565b60008060408385031215610f5057600080fd5b6000610f5e85828601610e5f565b9250506020610f6f85828601610e74565b9150509250929050565b610f828161179f565b82525050565b6000610f938261151c565b610f9d8185611527565b9350610fad8185602086016117e2565b610fb681611918565b840191505092915050565b6000610fce602383611527565b91507f45524332303a207472616e7366657220746f20746865207a65726f206164647260008301527f65737300000000000000000000000000000000000000000000000000000000006020830152604082019050919050565b6000611034601483611527565b91507f4d6178696d756d206d696e7420726561636865640000000000000000000000006000830152602082019050919050565b6000611074602283611527565b91507f45524332303a20617070726f766520746f20746865207a65726f20616464726560008301527f73730000000000000000000000000000000000000000000000000000000000006020830152604082019050919050565b60006110da601d83611527565b91507f45524332303a20696e73756666696369656e7420616c6c6f77616e63650000006000830152602082019050919050565b600061111a602683611527565b91507f45524332303a207472616e7366657220616d6f756e742065786365656473206260008301527f616c616e636500000000000000000000000000000000000000000000000000006020830152604082019050919050565b6000611180602583611527565b91507f45524332303a207472616e736665722066726f6d20746865207a65726f20616460008301527f64726573730000000000000000000000000000000000000000000000000000006020830152604082019050919050565b60006111e6602483611527565b91507f4d6178696d756d206d696e74207265616368656420666f72207468652061636360008301527f6f756e74000000000000000000000000000000000000000000000000000000006020830152604082019050919050565b600061124c602483611527565b91507f45524332303a20617070726f76652066726f6d20746865207a65726f2061646460008301527f72657373000000000000000000000000000000000000000000000000000000006020830152604082019050919050565b60006112b2602583611527565b91507f45524332303a2064656372656173656420616c6c6f77616e63652062656c6f7760008301527f207a65726f0000000000000000000000000000000000000000000000000000006020830152604082019050919050565b6000611318601f83611527565b91507f45524332303a206d696e7420746f20746865207a65726f2061646472657373006000830152602082019050919050565b611354816117cb565b82525050565b611363816117d5565b82525050565b600060208201905061137e6000830184610f79565b92915050565b6000602082019050818103600083015261139e8184610f88565b905092915050565b600060208201905081810360008301526113bf81610fc1565b9050919050565b600060208201905081810360008301526113df81611027565b9050919050565b600060208201905081810360008301526113ff81611067565b9050919050565b6000602082019050818103600083015261141f816110cd565b9050919050565b6000602082019050818103600083015261143f8161110d565b9050919050565b6000602082019050818103600083015261145f81611173565b9050919050565b6000602082019050818103600083015261147f816111d9565b9050919050565b6000602082019050818103600083015261149f8161123f565b9050919050565b600060208201905081810360008301526114bf816112a5565b9050919050565b600060208201905081810360008301526114df8161130b565b9050919050565b60006020820190506114fb600083018461134b565b92915050565b6000602082019050611516600083018461135a565b92915050565b600081519050919050565b600082825260208201905092915050565b6000611543826117cb565b915061154e836117cb565b9250827fffffffffffffffffffffffffffffffffffffffffffffffffffffffffffffffff03821115611583576115826118ba565b5b828201905092915050565b6000808291508390505b60018511156115d8578086048111156115b4576115b36118ba565b5b60018516156115c35780820291505b80810290506115d185611929565b9450611598565b94509492505050565b60006115ec826117cb565b91506115f7836117cb565b92506116247fffffffffffffffffffffffffffffffffffffffffffffffffffffffffffffffff848461162c565b905092915050565b60008261163c57600190506116f8565b8161164a57600090506116f8565b8160018114611660576002811461166a57611699565b60019150506116f8565b60ff84111561167c5761167b6118ba565b5b8360020a915084821115611693576116926118ba565b5b506116f8565b5060208310610133831016604e8410600b84101617156116ce5782820a9050838111156116c9576116c86118ba565b5b6116f8565b6116db848484600161158e565b925090508184048111156116f2576116f16118ba565b5b81810290505b9392505050565b600061170a826117cb565b9150611715836117cb565b9250817fffffffffffffffffffffffffffffffffffffffffffffffffffffffffffffffff048311821515161561174e5761174d6118ba565b5b828202905092915050565b6000611764826117cb565b915061176f836117cb565b925082821015611782576117816118ba565b5b828203905092915050565b6000611798826117ab565b9050919050565b60008115159050919050565b600073ffffffffffffffffffffffffffffffffffffffff82169050919050565b6000819050919050565b600060ff82169050919050565b60005b838110156118005780820151818401526020810190506117e5565b8381111561180f576000848401525b50505050565b6000611820826117cb565b91506000821415611834576118336118ba565b5b600182039050919050565b6000600282049050600182168061185757607f821691505b6020821081141561186b5761186a6118e9565b5b50919050565b600061187c826117cb565b91507fffffffffffffffffffffffffffffffffffffffffffffffffffffffffffffffff8214156118af576118ae6118ba565b5b600182019050919050565b7f4e487b7100000000000000000000000000000000000000000000000000000000600052601160045260246000fd5b7f4e487b7100000000000000000000000000000000000000000000000000000000600052602260045260246000fd5b6000601f19601f8301169050919050565b60008160011c9050919050565b61193f8161178d565b811461194a57600080fd5b50565b611956816117cb565b811461196157600080fd5b5056fea264697066735822122061800b956287708e7072b7fa6f020b7fe3bdd1c7c486cc96423d50dc0e71aed364736f6c63430008000033",
  "immutableReferences": {},
  "source": "// SPDX-License-Identifier: MIT\r\npragma solidity ^0.8.0;\r\n\r\nimport \"@openzeppelin/contracts/token/ERC20/ERC20.sol\";\r\n\r\ncontract tToken is ERC20 {\r\n    constructor(uint256 initialSupply) ERC20(\"Test Token\", \"tTOKEN\") {\r\n        _mint(msg.sender, initialSupply);\r\n    }\r\n\r\n    uint digits = 18;\r\n    uint _mintAmount = 50;\r\n    uint _mintLeft = 1000;\r\n    uint mintForAccount = 5;\r\n    mapping(address => uint256) private _mintDoneAccount;\r\n\r\n\r\n    function mintToken() public {\r\n        require(_mintLeft > 0, \"Maximum mint reached\");\r\n        require(_mintDoneAccount[msg.sender] < mintForAccount, \"Maximum mint reached for the account\");\r\n        _mint(msg.sender, _mintAmount * 10 ** digits);\r\n        _mintLeft--;\r\n        _mintDoneAccount[msg.sender]++;\r\n    }\r\n\r\n    function mintLeft() public view returns (uint) {\r\n        return _mintLeft;\r\n    }\r\n\r\n    function mintLeftAddress(address _account) public view returns (uint) {\r\n        return mintForAccount - _mintDoneAccount[_account];\r\n    }\r\n\r\n    function mintAmount() public view returns (uint) {\r\n        return _mintAmount;\r\n    }\r\n}\r\n",
  "sourcePath": "a:\\haru\\Mega\\Code\\Templates\\Start2Impact\\Progetto Solidity\\Progetto Ethereum Web3 di Dennis Ponzio\\ethereumWeb3\\truffle\\contracts\\tToken.sol",
  "compiler": {
    "name": "solc",
    "version": "0.8.0+commit.c7dfd78e.Emscripten.clang"
  },
  "schemaVersion": "3.4.14",
  "updatedAt": "2023-08-14T14:00:19.839Z",
  "networkType": "ethereum",
  "devdoc": {
    "kind": "dev",
    "methods": {
      "allowance(address,address)": {
        "details": "See {IERC20-allowance}."
      },
      "approve(address,uint256)": {
        "details": "See {IERC20-approve}. NOTE: If `amount` is the maximum `uint256`, the allowance is not updated on `transferFrom`. This is semantically equivalent to an infinite approval. Requirements: - `spender` cannot be the zero address."
      },
      "balanceOf(address)": {
        "details": "See {IERC20-balanceOf}."
      },
      "decimals()": {
        "details": "Returns the number of decimals used to get its user representation. For example, if `decimals` equals `2`, a balance of `505` tokens should be displayed to a user as `5.05` (`505 / 10 ** 2`). Tokens usually opt for a value of 18, imitating the relationship between Ether and Wei. This is the default value returned by this function, unless it's overridden. NOTE: This information is only used for _display_ purposes: it in no way affects any of the arithmetic of the contract, including {IERC20-balanceOf} and {IERC20-transfer}."
      },
      "decreaseAllowance(address,uint256)": {
        "details": "Atomically decreases the allowance granted to `spender` by the caller. This is an alternative to {approve} that can be used as a mitigation for problems described in {IERC20-approve}. Emits an {Approval} event indicating the updated allowance. Requirements: - `spender` cannot be the zero address. - `spender` must have allowance for the caller of at least `subtractedValue`."
      },
      "increaseAllowance(address,uint256)": {
        "details": "Atomically increases the allowance granted to `spender` by the caller. This is an alternative to {approve} that can be used as a mitigation for problems described in {IERC20-approve}. Emits an {Approval} event indicating the updated allowance. Requirements: - `spender` cannot be the zero address."
      },
      "name()": {
        "details": "Returns the name of the token."
      },
      "symbol()": {
        "details": "Returns the symbol of the token, usually a shorter version of the name."
      },
      "totalSupply()": {
        "details": "See {IERC20-totalSupply}."
      },
      "transfer(address,uint256)": {
        "details": "See {IERC20-transfer}. Requirements: - `to` cannot be the zero address. - the caller must have a balance of at least `amount`."
      },
      "transferFrom(address,address,uint256)": {
        "details": "See {IERC20-transferFrom}. Emits an {Approval} event indicating the updated allowance. This is not required by the EIP. See the note at the beginning of {ERC20}. NOTE: Does not update the allowance if the current allowance is the maximum `uint256`. Requirements: - `from` and `to` cannot be the zero address. - `from` must have a balance of at least `amount`. - the caller must have allowance for ``from``'s tokens of at least `amount`."
      }
    },
    "version": 1
  },
  "userdoc": {
    "kind": "user",
    "methods": {},
    "version": 1
  }
}